:100000000C945D000C9461030C943A030C948500ED
:100010000C9485000C9485000C9485000C9485004C
:100020000C9485000C9485000C9485000C9485003C
:100030000C9485000C9485000C9485000C9485002C
:100040000C94F0020C9485000C94BE020C9498025F
:100050000C9485000C9485000C9485000C9485000C
:100060000C9485000C9485000000000024002700FB
:100070002A0000000000250028002B0004040404CE
:100080000404040402020202020203030303030342
:10009000010204081020408001020408102001021F
:1000A00004081020000000080002010000030407FB
:1000B0000000000000000000530411241FBECFEF19
:1000C000D8E0DEBFCDBF11E0A0E0B1E0E0ECFBE0A6
:1000D00002C005900D92A831B107D9F721E0A8E13F
:1000E000B1E001C01D92A03CB207E1F710E0CDE500
:1000F000D0E004C02197FE010E94A204CC35D107B4
:10010000C9F70E9488030C94DE050C940000CF927E
:10011000DF92EF92FF920F931F93CF93DF936C01C7
:100120007A018B01C0E0D0E0CE15DF0589F0D8015F
:100130006D918D01D601ED91FC910190F081E02D42
:10014000C6010995892B11F47E0102C02196ECCFDE
:10015000C701DF91CF911F910F91FF90EF90DF903A
:10016000CF900895FC01918D828D981761F0828D5A
:10017000DF01A80FB11D5D968C91928D9F5F9F73DB
:10018000928F90E008958FEF9FEF0895FC01918D7D
:10019000828D981731F0828DE80FF11D858D90E0EA
:1001A00008958FEF9FEF0895FC01918D228D892F87
:1001B00090E0805C9F4F821B91098F73992708956F
:1001C00083E291E00E94D40021E0892B09F420E031
:1001D000822F0895FC01848DDF01A80FB11DA35A61
:1001E000BF4F2C91848D90E001968F739927848F57
:1001F000A689B7892C93A089B1898C9180648C934E
:10020000938D848D981306C00288F389E02D808138
:100210008F7D80830895EF92FF920F931F93CF936A
:10022000DF93EC0181E0888F9B8D8C8D981305C046
:10023000E889F989808185FD24C0F62E0B8D10E0B8
:100240000F5F1F4F0F731127E02E8C8DE8120CC02B
:100250000FB607FCFACFE889F989808185FFF5CFD1
:10026000CE010E94EA00F1CF8B8DFE01E80FF11D57
:10027000E35AFF4FF0820B8FEA89FB89808180620D
:1002800007C0EE89FF896083E889F98980818064ED
:10029000808381E090E0DF91CF911F910F91FF90DB
:1002A000EF900895CF93DF93EC01888D8823C9F0F8
:1002B000EA89FB89808185FD05C0A889B9898C916F
:1002C00086FD0FC00FB607FCF5CF808185FFF2CF0A
:1002D000A889B9898C9185FFEDCFCE010E94EA00F3
:1002E000E7CFDF91CF91089580E090E0892B29F04E
:1002F0000E94E00081110C940000089590E0FC0140
:10030000EC55FF4F3491FC01E057FF4F2491FC0165
:10031000E458FF4FE491EE2309F43BC0332339F155
:10032000333091F038F43130A9F0323001F584B532
:100330008F7D12C0373091F03830A1F03430B9F4ED
:10034000809180008F7D03C0809180008F778093A3
:1003500080000DC084B58F7784BD09C08091B00046
:100360008F7703C08091B0008F7D8093B000F0E064
:10037000EE0FFF1FEE58FF4FA591B4918FB7F89481
:10038000EC91611103C020952E2301C02E2B2C93DC
:100390008FBF0895CF93DF9390E0FC01E057FF4FAC
:1003A0002491FC01E458FF4F8491882361F190E08F
:1003B000880F991FFC01E859FF4FC591D491FC01AA
:1003C000EE58FF4FA591B491611109C09FB7F89401
:1003D0008881209582238883EC912E230BC0623084
:1003E00061F49FB7F8943881822F809583238883A6
:1003F000EC912E2B2C939FBF06C08FB7F894E88109
:100400002E2B28838FBFDF91CF910895089560E050
:1004100085E00E947E0180E480937C0080917A00D8
:10042000806480937A0080917A0086FDFCCF609191
:1004300078008091790070E0782B072E000C880BF3
:10044000990B0E94E00420E030E040E85AE30E946B
:10045000440520E030E44CE156E40E9444050E944B
:10046000A80470932201609321016230710548F065
:10047000660F771F660F771F65507109CB010197D3
:10048000F1F761E085E00C947E018F929F92AF922C
:10049000BF920F931F93CF93DF93CDB7DEB7A19792
:1004A0000FB6F894DEBF0FBECDBF19A2423008F4DC
:1004B0004AE08E010F5D1F4F842E912CA12CB12C90
:1004C000A50194010E948004E62FB901CA010150E0
:1004D0001109EA3014F4E05D01C0E95CD801EC9345
:1004E000232B242B252B61F70115110571F0F80141
:1004F00001900020E9F73197AF01401B510BB80183
:1005000083E291E00E94870002C080E090E0A19623
:100510000FB6F894DEBF0FBECDBFDF91CF911F9114
:100520000F91BF90AF909F908F9008950E94D90532
:100530001F920F920FB60F9211242F933F934F9358
:100540005F936F937F938F939F93AF93BF93EF933B
:10055000FF9383E291E00E94EA00FF91EF91BF9147
:10056000AF919F918F917F916F915F914F913F914B
:100570002F910F900FBE0F901F9018951F920F9202
:100580000FB60F9211242F938F939F93EF93FF93A6
:10059000E0913301F09134018081E0913901F091D3
:1005A0003A0182FD12C0908180913C018F5F8F7370
:1005B00020913D01821751F0E0913C01F0E0ED5DAA
:1005C000FE4F958F80933C0101C08081FF91EF9198
:1005D0009F918F912F910F900FBE0F901F901895A4
:1005E0001F920F920FB60F9211242F933F938F9368
:1005F0009F93AF93BF9380911D0190911E01A09195
:100600001F01B091200130911C0123E0230F2D37F1
:1006100020F40196A11DB11D05C026E8230F029606
:10062000A11DB11D20931C0180931D0190931E01FB
:10063000A0931F01B093200180911801909119019E
:10064000A0911A01B0911B010196A11DB11D8093CB
:10065000180190931901A0931A01B0931B01BF9147
:10066000AF919F918F913F912F910F900FBE0F905F
:100670001F9018951F920F920FB60F9211242F936F
:100680003F934F935F936F937F938F939F93AF931A
:10069000BF93EF93FF93E0910201F091030109955D
:1006A000FF91EF91BF91AF919F918F917F916F914A
:1006B0005F914F913F912F910F900FBE0F901F9020
:1006C00018951F920F920FB60F9211242F933F93FC
:1006D0004F935F936F937F938F939F93AF93BF934A
:1006E000EF93FF93E0910001F09101010995FF91D3
:1006F000EF91BF91AF919F918F917F916F915F919A
:100700004F913F912F910F900FBE0F901F90189512
:10071000789484B5826084BD84B5816084BD85B5DC
:10072000826085BD85B5816085BD80916E008160E8
:1007300080936E001092810080918100826080938E
:100740008100809181008160809381008091800090
:100750008160809380008091B10084608093B100BB
:100760008091B00081608093B00080917A008460B5
:1007700080937A0080917A00826080937A008091E1
:100780007A00816080937A0080917A0080688093FB
:100790007A001092C10060E082E00E94CA0161E02C
:1007A00082E00E947E0161E085E00E94CA0161E072
:1007B0008DE00E94CA0160E08DE00E947E01E09120
:1007C0003301F091340182E08083E0912F01F091B8
:1007D00030011082E0913101F09132018FEC808381
:1007E00010923B01E0913701F091380186E080835F
:1007F000E0913501F0913601808180618083E09144
:100800003501F0913601808188608083E091350167
:10081000F0913601808180688083E0913501F0910C
:10082000360180818F7D8083C7E0D2E0C0902101B6
:10083000D09022010D2C000CEE08FF08F7FE14C02A
:10084000E0912301F09124010190F081E02D6DE20F
:1008500083E291E0099566277727CB016C197D0922
:100860008E099F094AE003C04AE0C701B6010E9411
:10087000450242E050E064E171E083E291E00E94D1
:100880008700D0930101C0930001809169008C7FA3
:10089000816080936900E89A61E08DE00E947E01AA
:1008A0000E947401C3CFE3E2F1E01382128288EE6A
:1008B00093E0A0E0B0E084839583A683B78388E0CB
:1008C00091E09183808385EC90E09587848784EC28
:1008D00090E09787868780EC90E0918B808B81EC0D
:1008E00090E0938B828B82EC90E0958B848B86ECEE
:1008F00090E0978B868B118E128E138E148E089536
:10090000A1E21A2EAA1BBB1BFD010DC0AA1FBB1F13
:10091000EE1FFF1FA217B307E407F50720F0A21B85
:10092000B30BE40BF50B661F771F881F991F1A94F2
:1009300069F760957095809590959B01AC01BD011C
:10094000CF010895EE0FFF1F0590F491E02D09945B
:100950000E94AF046894B1110C943E0508950E9462
:10096000230588F09F5798F0B92F9927B751B0F019
:10097000E1F0660F771F881F991F1AF0BA95C9F723
:1009800014C0B13091F00E943D05B1E008950C947F
:100990003D05672F782F8827B85F39F0B93FCCF332
:1009A000869577956795B395D9F73EF490958095A0
:1009B000709561957F4F8F4F9F4F0895E89409C0C0
:1009C00097FB3EF490958095709561957F4F8F4F82
:1009D0009F4F9923A9F0F92F96E9BB279395F69598
:1009E000879577956795B795F111F8CFFAF4BB0F16
:1009F00011F460FF1BC06F5F7F4F8F4F9F4F16C07A
:100A0000882311F096E911C0772321F09EE8872F03
:100A1000762F05C0662371F096E8862F70E060E0BF
:100A20002AF09A95660F771F881FDAF7880F969538
:100A3000879597F9089557FD9058440F551F59F021
:100A40005F3F71F04795880F97FB991F61F09F3FBB
:100A500079F087950895121613061406551FF2CFE4
:100A60004695F1DF08C0161617061806991FF1CF34
:100A700086957105610508940895E894BB2766275B
:100A80007727CB0197F908950E9457050C94C80564
:100A90000E94BA0538F00E94C10520F0952311F09C
:100AA0000C94B1050C94B70511240C943E050E94DA
:100AB0001B0570F3959FC1F3950F50E0551F629F82
:100AC000F001729FBB27F00DB11D639FAA27F00DA7
:100AD000B11DAA1F649F6627B00DA11D661F829FCE
:100AE0002227B00DA11D621F739FB00DA11D621FB3
:100AF000839FA00D611D221F749F3327A00D611DD0
:100B0000231F849F600D211D822F762F6A2F1124B1
:100B10009F5750409AF0F1F088234AF0EE0FFF1FE4
:100B2000BB1F661F771F881F91505040A9F79E3F3B
:100B3000510580F00C94B1050C943E055F3FE4F341
:100B4000983ED4F3869577956795B795F795E79591
:100B50009F5FC1F7FE2B880F911D9695879597F99A
:100B6000089597F99F6780E870E060E008959FEF2F
:100B700080EC089500240A94161617061806090634
:100B8000089500240A941216130614060506089503
:100B9000092E0394000C11F4882352F0BB0F40F48B
:100BA000BF2B11F460FF04C06F5F7F4F8F4F9F4FCB
:100BB000089581E090E0F8940C94DE05F894FFCF5E
:100BC00006020602000000000B018700D400B200FC
:080BD000C60052010D0A0000ED
:00000001FF
